:020000040008F2
:1000000000200820456C0800FD0E0800D35F0800A2
:10001000FF0E0800010F0800030F08000000000099
:10002000000000000000000000000000050F0800B4
:10003000070F080000000000090F08001F600800FB
:100040000B0F08000D0F08000F0F0800110F08001C
:10005000130F0800150F0800170F0800190F0800EC
:10006000492608001B0F08005B600800AF6008000D
:100070001D0F080067260800A7190800D1190800FD
:100080001F0F0800210F0800C1530800230F0800AC
:10009000250F0800270F0800290F08002B0F080064
:1000A0002D0F08002F0F0800310F0800330F080034
:0C00B000350F0800370F0800FB0E080099
:1000BC0010B584B001A8DFF858180CC90CC0083969
:1000CC000838DFF8000C00788DF806000024DFF803
:1000DC00CC0ADFF8CC1A0860DFF8C00ADFF8E81B9E
:1000EC000860DFF8B80ADFF8E41B08600020DFF8CE
:1000FC00E01B0870DFF8DC0B006800905FF4001068
:10010C00DFF8101808605FF40000DFF8681C086066
:10011C005FF08070DFF85C1C0860642100A800F0C0
:10012C0005FF0028F9D05FF40010DFF8481C0860C8
:10013C00DFF8A00B006800904FF47A7100A800F073
:10014C00F5FE0028F8D0DFF88C0B00680090DFF883
:10015C00480C0068C00709D4E4B2002C06D14FF457
:10016C007A7100A800F0E2FE0400F0E7E4B2002C83
:10017C0010D100F025F800F0CFFB01A800F0B5FB82
:10018C008DF8080001A800F049FA4FF47A713E206E
:10019C0000F00AFB1FBD0020C82801D2401CFBE761
:1001AC005FF08070DFF86C1708600020142801D213
:1001BC00401CFBE75FF08070DFF8B81B08607047ED
:1001CC00F0B58BB006A8DFF8201A112200F0CCFE97
:1001DC0000A8DFF8181A182200F0D6FE0027DFF866
:1001EC00B80B0068C00740F10B81DFF8040A006807
:1001FC0006000020DFF8FC190860DFF8FC09006835
:10020C00C00009D5DFF8F009006830F08050DFF845
:10021C00E8190860761E15E0FFF7BDFFDFF8780BD4
:10022C00006840070ED4DFF8CC09006842F2107168
:10023C00884207D2DFF8BC090068401CDFF8B4190B
:10024C000860EBE7DFF8AC09006842F211718842F4
:10025C0005D300F0D7F806A800F0D2FED0E0DFF806
:10026C00380B006830F00400DFF82C1B0860DFF856
:10027C00580A00680078A42840F08680DFF87809D6
:10028C00006850F08060DFF870190860FFF783FF9A
:10029C00DFF8040B0068C0070ED5DFF858090068BA
:1002AC0042F21071884207D2DFF848090068401CFE
:1002BC00DFF840190860EBE7DFF83C09006830F024
:1002CC008060DFF834190860DFF8CC0A006830F081
:1002DC000400DFF8C41A0860DFF81809006842F25D
:1002EC001071884246D2DFF808090068861BDFF8D7
:1002FC00D80900680078040000F09AF8DFF8C80903
:10030C0000680078801C0500EDB2A81C864207D05E
:10031C00DFF8E408006850F00100DFF8DC18086032
:10032C00DFF8A40900680078444000F081F86D1EE5
:10033C00EDB2002DF4D1DFF8900900680078E4B23A
:10034C0084420ED1DFF888090078401CDFF8801950
:10035C000870DFF884090068401CDFF87C1908601D
:10036C001BE0DFF864090068DFF86019086000F032
:10037C0073F812E0DFF8000A0068401CDFF8F81987
:10038C0008600120070008E0DFF8F0090068401C55
:10039C00DFF8E819086001200700FFB2002F2DD00C
:1003AC0000A800F02DFEDFF8F0090068C00710D59A
:1003BC00DFF84008006842F21071884209D2DFF879
:1003CC0034080068401CDFF82C180860FFF7E3FEC7
:1003DC00E9E7DFF8CC070068DFF8EC180860DFF815
:1003EC00C0070068DFF8E4180860DFF8AC090068A3
:1003FC0030F00600DFF8A019086001E000F018F8F2
:10040C000BB0F0BD72B6DFF89407DFF894170860F4
:10041C00DFF88807DFF8B0180860DFF88007DFF82E
:10042C00AC1808600020DFF8A818087062B6704796
:10043C00DFF894080068401CDFF88C180860DFF8BF
:10044C0088080068DFF85419884204D1DFF84C079B
:10045C00DFF8741808607047DFF870080068401CFB
:10046C00DFF868180860DFF864080068DFF82C19FA
:10047C00884204D1DFF82407DFF850180860704771
:10048C0038B5DFF89C090068C00109D5DFF894097C
:10049C0000F0B6FDDFF89009DFF890190860B6E0BF
:1004AC005FF40010DFF888190860DFF8880900F0A5
:1004BC00A7FD0020DFF8801908600020DFF87C1908
:1004CC0008600020DFF8FC1708701020DFF8F41724
:1004DC0048700020DFF8EC178870FF20DFF8E41775
:1004EC00C870FF20DFF8DC1708710120DFF8D41783
:1004FC0048711020DFF8CC178871CD20DFF8C417B5
:10050C00C8710C20DFF8BC1708723720DFF8B4175D
:10051C0048720320DFF8AC1788720420DFF820192A
:10052C000870DFF82009DFF8181948605FF48000C4
:10053C00DFF80C1988600120DFF804190873022019
:10054C00DFF8FC1848730FF24530DFF8F418086137
:10055C000FF25130DFF8E8184861DFF84006DFF899
:10056C00E0188861DFF83806DFF8D418C8614FF45A
:10057C008070DFF8CC180884DFF8C40801F0A8F804
:10058C00DFF8C41808600020DFF80C180860FFF7CB
:10059C008FFDDFF8B8080078C00617D5DFF8B00873
:1005AC0000F02EFDDFF8AC0800F02AFD00F03AFD5B
:1005BC00DFF8A408006830F48030DFF89C1808607D
:1005CC000FF21970DFF86418086020E0DFF88C086F
:1005DC0000F016FD5FF0307004005FF0F070050065
:1005EC00DFF87C080460DFF87C080460DFF878082A
:1005FC000560DFF850080560DFF870080460DFF86C
:10060C00700805600FF6E500DFF82018086031BDB2
:10061C0080B5DFF818080068804701BDF0B599B0C7
:10062C000400DFF85008076810A8DFF84C182122E6
:10063C0000F09AFC0AA8DFF84418152200F094FC8C
:10064C0005A8DFF83C18122200F08EFC00A8DFF899
:10065C003418112200F088FCDFF89C05006810F0BB
:10066C00406F04D010A800F0CBFC00209AE00020D2
:10067C00DFF8801508605FF40000DFF8981208605E
:10068C00DFF814070068C0070ED4DFF868050068AF
:10069C0042F21071884207D2DFF858050068401CFE
:1006AC00DFF850150860EBE7DFF84805006842F208
:1006BC001171884209D35FF40000DFF8B8160860A6
:1006CC000AA800F09DFC00206CE0FFF764FDDFF849
:1006DC00C806006840070ED4DFF81805006842F21F
:1006EC001071884207D2DFF80C050068401CDFF857
:1006FC0004150860EBE75FF40000DFF8781608607B
:10070C00DFF8F004006842F21171884204D30AA8A1
:10071C0000F076FC002045E0DFF8AC0500680078BE
:10072C000500EDB2A42D09D1DFF8CC04006850F01F
:10073C008050DFF8C4140860002033E0FFF778FE27
:10074C00FFF78AFEDFF85006006830F00400DFF88F
:10075C0048160860EDB2A52D20D1DFF89C04006886
:10076C0050F00060DFF8901408602078C01C060080
:10077C0022003100DFF8D006006801F04DF8DFF8F8
:10078C0008170860DFF800070068002801D0012076
:10079C0008E005A800F034FC002003E000A800F0FD
:1007AC002FFC002019B0F0BDF0B589B004000D008D
:1007BC0000260127DFF8BC060068009001A8DFF8CE
:1007CC00CC161A2200F0D0FBDFF808050068009068
:1007DC00DFF8C4050068C00709D5F6B2002E06D1B3
:1007EC004FF47A7100A800F0A1FB0600F0E7F6B216
:1007FC00002E20D1DFF86006006830F00060DFF8D2
:10080C005816086000F04DFA0020DFF87C160860DE
:10081C00DFF8C00400680090DFF87C050068C007B2
:10082C0009D4F6B2002E06D14FF47A7100A800F06C
:10083C007DFB0600F0E7F6B2002E1BD1FFF7C0FCE3
:10084C00DFF88C040078002814D0DFF880040068EE
:10085C00807840280ED1DFF8740400680079E4B287
:10086C00A04207D1DFF8640400684079002801D168
:10087C000020070000F050F8F6B2002E02D001A8BC
:10088C0000F0BEFB3800C0B209B0F0BD80B5DFF897
:10089C0000060068401CDFF8F8150860FFF77BFCC9
:1008AC0001BD000080B5DFF848030068401CDFF88C
:1008BC0040130860DFF8E8040068401CDFF8E0141F
:1008CC000860DFF8DC040068DFF8D014884204D13B
:1008DC00DFF8D004DFF8C8140860DFF87C05006886
:1008EC00400101D5FFF757FC01BD10B40100087899
:1008FC00821CA5200023DBB2D2B2934204D20C7826
:10090C006040491C5B1CF6E7C0B210BC704700008D
:10091C00506C0800340E0E4030B585B0DFF8B003D3
:10092C000078002801D1012036E1DFF86C05006861
:10093C00401CDFF864150860DFF894030078401E53
:10094C00DFF88C130870FFF787FDDFF88003006871
:10095C0000780400E4B2122C01DB01201CE100251C
:10096C00EDB2E4B2E01C85420ADADFF860030068FD
:10097C00007800A9EDB26854FFF76EFD6D1CEFE72F
:10098C009DF801003E2800F0E58040280CD04E2850
:10099C0000F0D2804F2800F0C280522800F0D9809D
:1009AC006F2800F0EB80F0E09DF80300012859D08F
:1009BC009DF8030041282DD0422826D04B2802D088
:1009CC004C2815D034E0DFF8D40400F019FBDFF824
:1009DC008804006850F40020DFF87C140860DFF80D
:1009EC007804006830F48020DFF86C14086023E091
:1009FC00DFF8AC0400F004FBDFF85C04006830F4B2
:100A0C00C010DFF85414086016E0DFF8980400F00A
:100A1C00F7FA11E0DFF8900400F0F2FADFF838048E
:100A2C000068DFF888140840DFF82C14086003E035
:100A3C00DFF87C0400F0E4FA9DF80400002804D1EF
:100A4C00DFF80C0400F0DCFA68E0DFF8680400F072
:100A5C00D7FADFF80404006850F00200DFF8F8134E
:100A6C0008605BE09DF8040000280AD0022809D039
:100A7C0003282AD0052830D006283AD007283CD0A5
:100A8C0044E04BE0DFF830040078401CDFF8281419
:100A9C000870DFF824040078002812D1DFF81C0459
:100AAC000078401CDFF814140870DFF8100400788C
:100ABC00002806D1DFF808040078401CDFF8001489
:100ACC000870022000F06EF828E07E48407810286C
:100ADC0002D1032000F066F820E0DFF87C03006808
:100AEC0050F08070DFF870130860052000F05AF8A1
:100AFC0014E0062000F056F810E0DFF85C03006804
:100B0C0030F40020DFF85013086007E0DFF84803EA
:100B1C00006850F00400DFF8401308603BE00DF172
:100B2C000301012000F06AF866484078002802D1E1
:100B3C00002000F037F82EE00DF10301012000F049
:100B4C005DF860484078002802D1002000F02AF8B7
:100B5C0021E020E00020C0B20A2808DA00A9C0B2C7
:100B6C0041188978BB4AC0B28154401CF3E7B7489E
:100B7C00006850F01000B54908600CE0B6480068F9
:100B8C0050F48030B449086005E0B348006850F078
:100B9C000800B1490860002005B030BD8014002069
:100BAC00401C00201CB50400FF208DF800008DF8BF
:100BBC000140FF208DF80200FF208DF80300FF207C
:100BCC008DF80400BE4800788DF80500BB4800780D
:100BDC008DF80600B84800788DF8070000A90220AF
:100BEC0000F00CF813BD0000886B0800F86A0800D0
:100BFC002C1C0020201C0020141C00202DE9F0418E
:100C0C008CB004000D005FF0000800A8AD492B2249
:100C1C0000F0AAF9142001F0ADF90600002E04D161
:100C2C0000A800F0EDF9002038E00020C0B2082840
:100C3C0006DAC0B2415DC0B282195171401CF5E7B1
:100C4C002448006830603471002030617A480068B4
:100C5C00002807D1784806608E480068401C8D49F2
:100C6C0008601AE07448006807003869002803D04F
:100C7C003F6918F10108F8E75FFA88F8B8F1200F1E
:100C8C0006D23E6183480068401C8249086004E03B
:100C9C0000A800F0B5F9002000E001200CB0BDE880
:100CAC00F08110B56548006800280AD063480068D8
:100CBC00040062480068806960490860200001F007
:100CCC00B1F910BDD41B0020441C0020481C00208E
:100CDC005E1D0020C41C0020581C002070B501248F
:100CEC0000255D480068000420D0774800F088F9A2
:100CFC006D1C0026F6B2042E12DA5748006820420A
:100D0C000BD07248EDB2142101FB050000F078F90C
:100D1C0051480068A043504908606400761CE9E71C
:100D2C004D480068000C00044B490860FFF7F4FDC7
:100D3C0019480068C00704D50FF245003B4908600C
:100D4C0016E051480068002812D13C480068002881
:100D5C000ED03A480068001DFFF760FC002807D051
:100D6C005B4800685B4908600FF23D002F49086042
:100D7C0070BD0000300E0E40301C0020341C0020D2
:100D8C0080B555480068401C53490860FFF718FAB5
:100D9C0052482649086001BDF01C00208015002037
:100DAC00401C00208014002010B53748006801F06A
:100DBC0079F90400E4B22000001F01282ED8FFF7B7
:100DCC0070FF0020304908602348006830F0006054
:100DDC002149086042480068C0070BD53D480068AF
:100DEC0042F21071884205D23A480068401C3949D9
:100DFC000860EFE73B48006842F21171884209D362
:100E0C00394800F0FDF836480068C00702D5FFF7F6
:100E1C00C2F9F8E7314805490860FFE710BD00004A
:100E2C00AC1C0020A4010020F90E08001C1C0020A2
:100E3C00100E0E400C030020181C0020501C00202B
:100E4C00941A0020000E0E403C1C0020B01C002008
:100E5C002C040020E01B0020141C00205802002051
:100E6C00040C0E40000C0E40040E0E40140C0E40F0
:100E7C00140E0E40C81C00206C680800106B080093
:100E8C009C6B0800B06B0800381C0020646A0800DA
:100E9C00281C00204C1C00205C1C0020AC030020F3
:100EAC009803002084030020F4020020FEFFE3FFDF
:100EBC00D802002034040020611D0020601D002099
:100ECC005F1D002018680800E803002010010020B6
:100EDC00C41C0020241C0020541C0020E90C080019
:100EEC00F01C0020201C0020780200207047FEE738
:100EFC00FEE7FEE7FEE7FEE7FEE7FEE7FEE7FEE7BE
:100F0C00FEE7FEE7FEE7FEE7FEE7FEE7FEE7FEE7AD
:100F1C00FEE7FEE7FEE7FEE7FEE7FEE7FEE7FEE79D
:100F2C00FEE7FEE7FEE7FEE7FEE7FEE710B4020091
:100F3C000C4800681468A04205D30A48006814687D
:100F4C00001B030007E05FF0FF301468001B054C2A
:100F5C002468201803008B4201D2002000E00120FD
:100F6C0010BC7047C41C002062B38B0708D0521E03
:100F7C0011F8013B00F8013B00F024808B07F6D1FF
:100F8C00830740F0208000BF103A07D330B4B1E89B
:100F9C003810103AA0E83810F9D230BC530724BFEF
:100FAC00B1E80810A0E8081044BF51F8043B40F821
:100FBC00043BD20724BF31F8022B20F8022B44BF8C
:100FCC000B7803707047083A07D3B1E80810083A59
:100FDC0040F8043B40F804CBF7D25307E4E750F851
:100FEC00041B61B150F8042BD30744BFA9F10103D2
:100FFC009A18002342F8043B091FFAD1EFE7704717
:10100C0070B50400250000262878002802D0761C34
:10101C006D1CF9E722003100DFF8F805006801F0DB
:10102C0059FA70BD80B5DFF8F0050088ADF8000006
:10103C0000AA0221DFF8DC05006801F04BFA01BDC3
:10104C002DE9FE43040000250026DFF8D0850020A2
:10105C00C0B20A2819DAB4FBF8F1303100AAC0B2D8
:10106C00815400A9C0B2415C302901D001210D008E
:10107C00EDB2002D00D0761CB4FBF8F108FB114446
:10108C000A21B8FBF1F8401CE2E7EDB2002D01D1CA
:10109C0001200600F6B2300000F06CFF8146B9F179
:1010AC00000F08D10220DFF8781508700FF23150CC
:1010BC00DFF870150860092007003000C0B2002866
:1010CC0009D000A9795CC0B210EB090202F8011C2E
:1010DC007F1E401EF2E74A46F6B23100DFF83405B7
:1010EC00006801F0F7F9484600F09CFFBDE8F78373
:1010FC0070B5A4B000A8DFF830150522FFF734FF57
:10110C0011A8DFF828154822FFF73EFF012401251E
:10111C0002A8DFF81C153C22FFF736FF11A8FFF7D9
:10112C006FFF0026F6B2062E12DADFF8080500680B
:10113C0004420AD10020050002A8F6B20A2101FBE4
:10114C000600FFF75DFFFFF76DFF6400761CE9E713
:10115C00EDB2002D02D000A8FFF752FFFFF762FF9F
:10116C0024B070BD00B585B0002080B2802806D2B6
:10117C000021DFF8C42480B28154401CF5E7DFF86D
:10118C00B804DFF8B8140860DFF8AC04DFF8B0146A
:10119C000860DFF8B004DFF8B014086002208DF8A6
:1011AC000000DFF894040190DFF894040290802092
:1011BC00ADF802000FF25900039000A801F0D6F828
:1011CC00DFF850140860DFF84C040068002805D1E3
:1011DC000FF20D40DFF84C14086010E0DFF86C04DF
:1011EC00FFF70EFFDFF84C04006850F00400DFF846
:1011FC00441408600FF23520DFF82814086005B09D
:10120C0000BD80B5DFF81C040068804701BD0000FC
:10121C00DFF82C040068401CDFF824140860DFF8A9
:10122C0020040068DFF82814884204D1DFF8080491
:10123C00DFF80C140860704710B592B00AA8DFF8FC
:10124C0014141922FFF790FE3A208DF8020020208A
:10125C008DF803000A208DF824000D208DF8250050
:10126C000AA8FFF7CDFE0024E4B2082C2CDAE4B275
:10127C000A2C07DBE4B20A2094FBF0F030308DF836
:10128C00000002E030208DF80000E4B20A2094FB4C
:10129C00F0F100FB114030308DF801000020C0B29D
:1012AC0020280CDADFF8B013E4B251F83410C0B2D5
:1012BC00415C00AAC0B282181171401CEFE700A873
:1012CC00FFF79EFE641CCFE7FFF7ACFE12B010BD1B
:1012DC0010B584B000A8DFF884131CC91CC00C39ED
:1012EC000C3800A8FFF78CFE1FBD10B584B000A809
:1012FC00DFF86C131CC91CC00C390C3800A8FFF7A4
:10130C007FFEDFF860030078C0070CD5DFF85403CC
:10131C00006840084000DFF84C130860DFF8480311
:10132C00FFF76EFE0BE0DFF83C03006850F00100A5
:10133C00DFF830130860DFF83403FFF761FE1FBDE0
:10134C0010B50400E4B2422C0BD1082001F00CFBC8
:10135C00092001F009FB0A2001F006FB0B2001F02B
:10136C0003FBE4B2522C0BD1002001F0FDFA01205A
:10137C0001F0FAFA022001F0F7FA032001F0F4FA76
:10138C00E4B2472C0BD1042001F0EEFA052001F059
:10139C00EBFA062001F0E8FA072001F0E5FA10BD9F
:1013AC0000B589B000A8B2492322FFF7DDFD00A8E3
:1013BC00FFF726FEAB480078C00709D5A94800689E
:1013CC0040084000A7490860A748FFF719FE08E04D
:1013DC00A448006850F00100A2490860A348FFF738
:1013EC000FFE09B000BD00B587B000A8A1491B22B3
:1013FC00FFF7BAFD00A8FFF703FE9A480068C00388
:10140C0009D59848006830F48030964908609648B1
:10141C00FFF7F6FD08E09348006850F480309149DE
:10142C0008609248FFF7ECFD07B000BD38B500240A
:10143C008248006882490968884262D0E4B2002C74
:10144C005FD17E480068007805008B480078012841
:10145C0003D12800C0B2FFF773FFEDB228000828B3
:10146C0002D00D2813D018E07748006875498842DF
:10147C0009D075480068401E734908607F48008891
:10148C00401E7E4908807E48FFF7BAFD2BE0012004
:10149C0004000FF28100634908602900C9B25D485D
:1014AC00006800F0FFFF6848006805706648006837
:1014BC00401C6549086071480088401C6F490880D1
:1014CC00614800686F4988420DD3EDB20D2D0AD0EA
:1014DC005C485D4908600020684908806A48FFF74D
:1014EC008FFD6A49086055480068401C53490860E4
:1014FC0052480068564988429AD34F484F49086071
:10150C0096E762480068002803D06048006800F045
:10151C00C9FD31BD70B50124002005004948EDB26C
:10152C00285C5B49EDB2695C884201D00020040064
:10153C006D1CE4B2002C02D0EDB2042DEEDBE4B253
:10154C00002C2ED0002004003E48EDB22856303836
:10155C0006006D1C76B2002E23D476B20A2E20DA49
:10156C000A2000FB06F04B4908703648EDB22856AD
:10157C00303806006D1C76B2002E12D476B20A2ECC
:10158C000FDA444800783018424908704148007816
:10159C00082806DA2B48EDB2285C0D2801D1012071
:1015AC000400E4B2002C04D00FF21D001D490860A9
:1015BC0005E03948FFF724FD38481A4908602148EE
:1015CC002149086070BD000080B534481549086099
:1015DC0021483049097810EBC1004068804701BDB3
:1015EC0080B52048006850F000401E4908602C4827
:1015FC00FFF706FD0A480078FFF722FDFFF712FD02
:10160C0000201E4908800F480F49086023480549EF
:10161C00086001BD781C0020BA2B080000CA9A3B58
:10162C00641D0020741C0020606C08009467080086
:10163C00DC670800B01C002010180020841C00205F
:10164C00801C002090190020881C002060010020C4
:10165C0090180020806A0800E4010020146C080037
:10166C00206C0800701C0020540400204C04002046
:10167C00D46908009C6A08007C0400205C1D0020D2
:10168C0060040020D0190020980200207C1C00204F
:10169C003C040020651D0020D403002039140800F0
:1016AC0024030020012110F01F029140DFF8502884
:1016BC0040B2430942F823107047012110F01F0279
:1016CC009140DFF8402840B2430942F8231070479C
:1016DC002DE9F04704002078022804D034D30428E4
:1016EC0021D010D330E0DFF8200805005020060090
:1016FC00DFF818080700082080467FF008008146B4
:10170C001A20824622E0DFF8080805006020060057
:10171C00DFF800080700002080465FF0FF308146AC
:10172C003020824612E0DFF8F0070500502006005A
:10173C00DFF8E80707005FF4002080465FF0FF3019
:10174C0081460020824601E0002063E02869C00247
:10175C0001D500205EE0DFF8C8070068012195F98B
:10176C00262091400843DFF8B8170860606868606D
:10177C00A068A860207B2873607B6873206968610F
:10178C006069A861A069E861E0692862208CA8847E
:10179C00286950F480102861286806602868476022
:1017AC002868C0F808802868C0F80C902868C0F831
:1017BC0020A0687B01281BD1A0692968C1F8000111
:1017CC00A069401C2968C1F8100101202968C1F8E2
:1017DC00040101202968C1F814010020286240F29C
:1017EC0001102968C1F820015FF400202968886085
:1017FC00687B022803D1DFF82C072968886095F9EB
:10180C00260040B2FFF759FF95F9260040B2FFF7CA
:10181C0049FF2800BDE8F087F8B504000D0016005C
:10182C003200290014F1280000F058FC0700002FAA
:10183C0001D1002007E0DFF8F4060068002801D58C
:10184C0000F087F83800F2BD70B5DFF8E806DFF875
:10185C00B81608600020DFF8B01648600020DFF8EA
:10186C00A81688620020DFF8A016C8610020DFF8F7
:10187C00981688840020DFF8901608620020DFF8A4
:10188C00881608610D20DFF8801681F82600DFF835
:10189C00A806DFF87C1608600020DFF87416486094
:1018AC000020DFF86C1688620020DFF86416C8612F
:1018BC000020DFF85C1688840020DFF854160862DC
:1018CC000020DFF84C1608610E20DFF8441681F872
:1018DC002600DFF86806DFF8401608600020DFF805
:1018EC00381648600020DFF8301688620020DFF8D8
:1018FC002816C8610020DFF8201688840020DFF845
:10190C00181608620020DFF8101608610F20DFF8A7
:10191C00081681F82600DFF8F005DFF824160860B9
:10192C008024FF25DFF808662A002100300001F032
:10193C000BF90FF20D40DFF8F0150860DFF8040624
:10194C00FFF75EFB70BD80B5DFF8DC0500688047F3
:10195C0001BD80B5DFF8F005006850F00100DFF83C
:10196C00E8150860DFF8A005DFF8D4150860DFF88B
:10197C00D8050078C0070FD5DFF8AC0500688047A4
:10198C00DFF8C8050068DFF8C81508600121DFF82A
:10199C00C005FFF7CBFAEAE701BD80B5DFF87005AB
:1019AC00DFF8B0150860DFF8B405DFF8AC15086097
:1019BC00DFF8AC050068401CDFF8A415086000F0E7
:1019CC0016F801BD80B5DFF85005DFF88815086002
:1019DC00DFF89005DFF880150860DFF88C050068EB
:1019EC00401CDFF88415086000F001F801BD70B5EB
:1019FC00DFF860050068006840690600DFF85405F0
:101A0C00006800680069000338D5300336D5DFF86C
:101A1C00440500684068C06BDFF8381509688968B0
:101A2C00084214D1DFF830050068006850F001005E
:101A3C00DFF8241509680860DFF81C0500680068E9
:101A4C0030F00600DFF810150968086016E0DFF8C2
:101A5C0008050068006840084000DFF8FC140968BD
:101A6C000860DFF8F0040068407B012806D10120F3
:101A7C00DFF8E01409680968C1F80401DFF8D40440
:101A8C00006800680069800570D5B0056ED5DFF878
:101A9C00C4040068C06A401EDFF8B8140968C86244
:101AAC00DFF8B0040068006880690400DFF8A40463
:101ABC000068C06A002825D0DFF898040068006B25
:101ACC00401CDFF8901409680863DFF8880400688C
:101ADC00006B00780400DFF87C040068007B0128B0
:101AEC0003D194FAA4F0000E04002000C0B2DFF879
:101AFC00641409680968C861DFF858040068406913
:101B0C00804733E04FF40070DFF848140968096827
:101B1C00C860DFF840040068006930F40010DFF89A
:101B2C003414096808610421DFF828040068806A0D
:101B3C00006800F0B9FBDFF81C040068283000F0E6
:101B4C004AFB0120DFF80C14096809688860DFF88B
:101B5C0008040068006850F00200DFF8FC13096804
:101B6C000860DFF8F003006840698047DFF8E403A1
:101B7C00006800680069C00737D5DFF8D803006833
:101B8C0000684069C00730D5DFF8C80300680068FA
:101B9C008069C0B20400DFF8BC030068007B012838
:101BAC0003D194FAA4F0000E04002000C0B2FF2868
:101BBC0006D1DFF8B8030068401CDFF8B0130860EA
:101BCC00DFF890030068006A00680470DFF888038F
:101BDC000068006850F00400DFF87C1309680860A6
:101BEC00DFF87003006880698047DFF868030068DD
:101BFC0000680069000762D5300760D5DFF8540330
:101C0C000068407B00282BD10421DFF848030068D2
:101C1C00806A006800F048FBDFF838030068283061
:101C2C0000F0D9FADFF82C030068006930F480006A
:101C3C00DFF8201309680861DFF818030068806872
:101C4C00C4490968496808630220C24909680968DF
:101C5C00C1F820010820BF4909680968C8602EE056
:101C6C00BD480068006850F00400BB490968086072
:101C7C00B84800680068D0F81001401CB5490968E4
:101C8C000968C1F81001B34800680068D0F8000179
:101C9C00B0490968C969AF4A1268928C51188842D8
:101CAC0007D1AC480068C069AA4909680968C1F83D
:101CBC0000010120A74909680968C1F81401A54869
:101CCC00006800680069C00639D5F00637D50421D4
:101CDC00A0480068806A006800F0E6FA9D48006839
:101CEC00283000F078FA9B480068006930F4001046
:101CFC009849096808614FF40070964909680968A9
:101D0C00C1F820011020934909680968C8600020B7
:101D1C0005009048006800684069800503D4642D74
:101D2C0001D26D1CF5E78B480068407B002806D17A
:101D3C00884800688068874909684968086370BDED
:101D4C0010B57F480068806A002800F0B5807C4898
:101D5C000068006910F4C00F40F0AE80784800684D
:101D6C00407B002806D17648006880687449096871
:101D7C004968486372480068806A08306C49884238
:101D8C002CD103216E480068806A006800F08CFA40
:101D9C006B480068006950F4800069490968086163
:101DAC0067480068806A0830654909680968C1F8A5
:101DBC00000163480068806A4068614909680968E5
:101DCC00C1F8040108205E4909680968886001208F
:101DDC005B4909680968C1F820016DE00221584887
:101DEC000068806A006800F05FFA55480068006976
:101DFC0050F4001052490968086151480068407B52
:101E0C0002283BD14E480068806A40684C490968FA
:101E1C00C8624B480068806A083049490968086301
:101E2C0047480068006B0078040045480068007B58
:101E3C00012803D194FAA4F0000E040008204049B4
:101E4C0009680968086040203D490968096808600C
:101E5C002000C0B23A4909680968C86101203849B4
:101E6C0009680968C8604FF4007035490968096849
:101E7C00886033480068406980471DE0304800683E
:101E8C00806A08302E4909680968C1F808012C4895
:101E9C000068806A40682A4909680968C1F80C0121
:101EAC00102027490968096888604FF4807024491C
:101EBC0009680968C1F820012148006890F82600DB
:101ECC000D2804D015D30F2809D004D311E01048E5
:101EDC001B49086013E01048194908600FE00A48D4
:101EEC001749086018480068400840001649086007
:101EFC0005E01F48FFF784F803481149086010BD3E
:101F0C0000E100E080E200E0D0190020C0084000B1
:101F1C00041A0020CE184500381A0020FF18410082
:101F2C0010040E4001000800F41C0020AC1C002022
:101F3C0010190020000009400040094000800940B1
:101F4C00001D002054030020FC1C0020C41C002099
:101F5C00F81C0020041D0020081D0020EC1C002093
:101F6C000C1D0020F01C0020101D0020141D002052
:101F7C006C03002070B5054605F10F00C408E400A1
:101F8C00C046C046A54232D2082C04D2082402E036
:101F9C00083000F047F82248026811000CD1011DEE
:101FAC000A6802B31368A34238BF111DF8D310E0BE
:101FBC001D68A5420DD2191D0B68002BF8D11268B3
:101FCC00011D00E0191D0B6893420CD01D68A54241
:101FDC00F8D361B10D682A68A2F10803A3420AD2B2
:101FEC006A680A600FE000F0E3FD0028D0D1C0461B
:101FFC00C046002070BD63190B60121B6E685E60DA
:10200C000B681A602C60096800291DBF4A68002AF9
:10201C00091D00210160C046C04605F1080070BDD5
:10202C000C1C002000B9704738B5A0F108042068DA
:10203C00082833D310F0070F30D1C046C0461848DB
:10204C00416809B18C4203D26160446017E01946C3
:10205C004B680BB1A342FAD30B685D18AC421BD38F
:10206C00A54204D12268D2180A600C4607E04A68DF
:10207C001AB123681B199A420ED362604C606168D6
:10208C0051B1226813198B4206D1002303600868F2
:10209C008018206048686060C046C04631BD0000B2
:1020AC000C1C00200100FF209A4A13688B4204D0BC
:1020BC00994B9A4201D00C32F7E7974B9A420BD0CE
:1020CC0013791800C0B2042802D0C0B2052803D17D
:1020DC000023136000231371C0B270472DE9F84F31
:1020EC0004000D001600AB465FF000098B48007829
:1020FC00102807D18A48006850F001008849086010
:10210C00002066E0BBF1000F62D084480078401CD0
:10211C0082490870814800780E2806DB80480068E8
:10212C0050F002007E49086005E07D48006830F000
:10213C0002007B4908607B4882469AF80000002820
:10214C0002D11AF1900AF8E700208AF800001AF17F
:10215C0004000700BBF1810F04D380208146BBF142
:10216C00800B02E0D946002083466F480068386037
:10217C00C7F804900020C7F88800002079688842CE
:10218C0005D23178C2191172761C401CF6E7206812
:10219C00002801D127600AE020688046D8F8880022
:1021AC00002802D0D8F88880F8E7C8F888705E4814
:1021BC00006800F087F85C480068401C5A490860C9
:1021CC005948006800289DD101205749086099E7BB
:1021DC003868BDE8F28F0268002A06D1504A1268AE
:1021EC0052F004024E4B1A601FE04E4A11000A1DB9
:1021FC0003689A4204D04D4A914201D09031F6E7DF
:10220C004A4A914206D1464A126852F00802444B9F
:10221C001A600AE00268D2F88820026001220A7073
:10222C003E4A1278521E3D4B1A70704700203B49B3
:10223C00087001203C490860002080B2102808DAA0
:10224C000121384A80B2902303FB00221170401CFC
:10225C00F3E7002080B2402816DA00212D4A80B224
:10226C000C2303FB0022116000212A4A80B20C23AC
:10227C0003FB002211710021264A80B20C2303FBC0
:10228C0000229160401CE5E72248294908600020A3
:10229C00234908600FF2610026490860704780B539
:1022AC0024480068804701BD1A4A1368834204D051
:1022BC00194B9A4201D00C32F7E7174B9A4200D0D7
:1022CC00117170471A49096808600121184A12688F
:1022DC00117119490968164A126891601449096804
:1022EC000C31134A1160124909680B4A914202D110
:1022FC0008490F4A1160704710480068401E0F498A
:10230C0008600E480068002803D14FF47A700B491E
:10231C00086070478011002080140020691D002087
:10232C00B41C002080040020BC1C0020800D002068
:10233C00C01C0020B81C0020C41C00206404002019
:10234C00012110F01F029140DFF8FC2440B2430938
:10235C0042F823107047012110F01F029140DFF862
:10236C00EC2440B2430942F8231070472DE9F047A2
:10237C0004002078012806D046D3032823D012D39A
:10238C00042830D040E0DFF8C804050050200600D7
:10239C00DFF8C0040700002080465FF0FF30814664
:1023AC001A20824632E0DFF8B00405005020060007
:1023BC00DFF8A0040700082080467FF00800814663
:1023CC001A20824622E0DFF8940405006020060003
:1023DC00DFF88C040700002080465FF0FF30814658
:1023EC003020824612E0DFF87C0405005020060005
:1023FC00DFF8740407005FF4002080465FF0FF30C4
:10240C0081460020824601E0002049E02879C0077F
:10241C0001D5002044E0DFF854040068012195F94F
:10242C00222091400843DFF844140860606868611A
:10243C0060882884A068A861E068E861686850F04A
:10244C000100686028680660286847602868C0F842
:10245C0008802868C0F80C902868C0F820A0606834
:10246C002968C1F800016068401C2968C1F8100196
:10247C0001202968C1F8040101202968C1F8140160
:10248C0040F201102968C1F8200195F9220040B2F0
:10249C00FFF761FF95F9220040B2FFF751FF2800CA
:1024AC00BDE8F08770B582B004000D008DF80050C7
:1024BC0000AA012114F10800FFF710FE0600002EFF
:1024CC0006D0DFF8B0030068002801D500F09BF8B7
:1024DC00300076BDF8B504000D001600320029005E
:1024EC0014F10800FFF7FAFD0700002F06D0DFF803
:1024FC0084030068002801D500F085F83800F2BD8F
:10250C000020DFF874130860DFF87003DFF8401365
:10251C0008600020DFF8381388600020DFF83013E3
:10252C0048610020DFF8281308840020DFF820130E
:10253C0088610020DFF8181348600820DFF81013BA
:10254C0081F82200DFF83803DFF80C130860002054
:10255C00DFF8041388600020DFF8FC1248610020CB
:10256C00DFF8F41208840020DFF8EC1288610020F8
:10257C00DFF8E41248600D20DFF8DC1281F822004D
:10258C00DFF80003DFF8D41208600020DFF8CC126B
:10259C0088600020DFF8C41248610020DFF8BC120C
:1025AC0008840020DFF8B41288610020DFF8AC1238
:1025BC0048600E20DFF8A41281F82200DFF8C80270
:1025CC00DFF8A01208600020A64988600020A54909
:1025DC0048610020A34908840020A249886100209A
:1025EC00A04948600F209F4981F822009848A749CC
:1025FC0008600FF27D109E490860704780B59C48BA
:10260C000068804701BD80B59B48006850F0010010
:10261C00994908608E489D49086097480078C00722
:10262C000BD5934800688047994800689949086021
:10263C0001219848FEF77AFCEFE701BD80B584488C
:10264C009549086095489649086096480068401C72
:10265C009449086000F010F801BD80B57E488E49A1
:10266C00086091488E49086090480068401C8F496A
:10267C00086000F001F801BD80B58748006800686B
:10268C000069000738D58448006800684069000775
:10269C0032D583480068006850F002008049096810
:1026AC0008607D4800680068D0F81001401C7A4929
:1026BC0009680968C1F81001774800680068D0F80B
:1026CC001001754909684969734A1268128C5118CE
:1026DC00884207D17048006840696F4909680968E9
:1026EC00C1F810016C480068C069804701206A4934
:1026FC0009680968C1F81401674800680068006936
:10270C00C00632D56448006800684069C0062CD504
:10271C0004216148006880680068FFF7C5FD5E48C9
:10272C0000680830FFF757FD5B480068406830F4DC
:10273C0000105949096848604FF4007056490968FF
:10274C000968C1F820011020534909680968C8605C
:10275C0057480078002805D055480078401E544949
:10276C00087002E05348FEF74BFC01BD000000006E
:10277C0080B5464800688068002836D04348006819
:10278C004068800231D402214048006880680068AB
:10279C00FFF78AFD3D480068406850F400103B4943
:1027AC00096848603948006880680830374909680A
:1027BC000968C1F8080135480068806840683349E9
:1027CC0009680968C1F80C011020304909680968CA
:1027DC00886037480078401C354908704FF4807089
:1027EC002A4909680968C1F820012848006890F84E
:1027FC002200082806D00D2808D00E280AD00F2851
:10280C000CD01DE01448214908601CE013481F49F6
:10281C00086018E013481D49086014E00C481B4977
:10282C00086014480068002809D521480078002861
:10283C0005D111480068400840000F49086002E0CB
:10284C0003481249086001BD00E100E080E200E0AD
:10285C00DC1A0020C0084000001B0020241B0020B4
:10286C00CE184500481B0020FF18410010040E40F4
:10287C00201D0020AC1C0020281D002000060E404E
:10288C000000094000400940008009402C1D002038
:10289C00C41C0020241D0020301D0020181D002009
:1028AC00341D0020381D00201C1D00203C1D002064
:1028BC006D1D0020446A080010B49C4AC0B20A2363
:1028CC0003FB0022D279012A0AD1994A974BC0B254
:1028DC000A2404FB00331B7A12EB8302110009E07B
:1028EC00944A924BC0B20A2404FB00331B7A12EBBD
:1028FC0083021100904AC0B252F820200A600022D4
:10290C008A4BC0B20A2404FB00331A7010BC704707
:10291C0010B4864AC0B20A2303FB0022D279012AE2
:10292C000AD1844A814BC0B20A2404FB00331B7ABF
:10293C0012EB8302110009E07D4A7C4BC0B20A24E1
:10294C0004FB00331B7A12EB830211007A4AC0B2EB
:10295C0052F820200A600022744BC0B20A2404FBF7
:10296C0000331A7010BC70477449704AC0B20A2305
:10297C0003FB0022127A11EB82010A686E4BC0B283
:10298C0053F820305A400A60704770B54FF47A649F
:10299C004FF4FA75601B1421B0FBF1F60020C0B2A5
:1029AC000D2804DA0021614A1170401CF7E70C2055
:1029BC00FFF782FF6248006850F001006049086030
:1029CC006048FEF71DFB70BD10B50024E4B20D2C61
:1029DC0080F2AA805548E4B20A2101FB0400007879
:1029EC00012872D15148E4B20A2101FB0400B0F96C
:1029FC000200002804D12000C0B2FFF789FF5CE080
:102A0C004A48E4B20A2101FB0400B0F90200142880
:102A1C0004D12000C0B2FFF74FFF4EE04348E4B2B0
:102A2C000A2101FB04008088401E4049E4B20A22BE
:102A3C0002FB041188803D48E4B20A2101FB04002A
:102A4C008088002839D13948E4B20A2101FB0400FE
:102A5C00807901281AD12000C0B2FFF759FF334802
:102A6C00E4B20A2101FB0400B0F90200D0F1140019
:102A7C002E49E4B20A2202FB0411888000202B4963
:102A8C00E4B20A2202FB0411887116E02000C0B2E5
:102A9C00FFF712FF2548E4B20A2101FB040040882D
:102AAC002249E4B20A2202FB0411888001201F494A
:102ABC00E4B20A2202FB0411887101201B49E4B222
:102ACC000A2202FB041108702CE01848E4B20A2117
:102ADC0001FB04000078022824D11448E4B20A2136
:102AEC0001FB04008088401E1049E4B20A2202FB5C
:102AFC00041188800D48E4B20A2101FB040080888F
:102B0C0000280FD12000C0B2FFF72EFF0748E4B217
:102B1C000A2101FB040040880449E4B20A2202FBAA
:102B2C0004118880641C51E710BD00008C0000204B
:102B3C00300C0E40340C0E4024020020380C0E4099
:102B4C00B01C00203C03002062F30F2262F31F42F2
:102B5C00401810F0030308D0C91A1FD3DB0748BF75
:102B6C0000F8012D28BF20F8022D130030B41446B4
:102B7C001546103928BF20E93C00FAD8490728BF70
:102B8C0020E90C0048BF40F8042D890028BF20F82C
:102B9C00022D48BF00F8012D30BC7047C91818BF72
:102BAC0000F8012DCB0728BF00F8012D70470A0D46
:102BBC000749086808B1002070470648C008C000E3
:102BCC0008600549C908C900091A0160704700BFAF
:102BDC00501D0020771D0020703D0020F0B583B003
:102BEC0004000D0016003088ADF800007088ADF8B8
:102BFC000200EDB2002D08D1062007000720ADF829
:102C0C0004000520ADF8060007E00B2007000E209D
:102C1C00ADF804000A20ADF806002078002824D076
:102C2C00BDF80200802820DAEDB2002D0AD100A9EF
:102C3C00DFF880082278072303FB0200E03800F05D
:102C4C0057F80AE000A9DFF8700822781C2303FB70
:102C5C000200B0F5A86000F04BF8BDF80200FFB21E
:102C6C003818ADF80200641CD7E7F7BD70B5040046
:102C7C0001256088082190FBF1F6EDB260880821EF
:102C8C0090FBF1F202FB11029540DFF8300821882D
:102C9C0010EB0110F6B2DFF82418228811EB0211A8
:102CAC00F6B2715C29433154DFF8140800F014FBC0
:102CBC0070BD30B401214288082392FBF3F2C9B2F3
:102CCC004388082493FBF4F505FB1435A940DFF881
:102CDC00EC37048813EB0413D2B2DFF8E047058815
:102CEC0014EB0514D2B2145D8C43D45430BC704731
:102CFC002DE9F84F04000D002888402880F2AF80A1
:102D0C006888802880F2AB80A8888DF8000028881D
:102D1C009DF800100818412804DB2888D0F14000E9
:102D2C008DF80000E888834668881FFA8BFB1BEB44
:102D3C000000812803DB6888D0F1800083460021E5
:102D4C009DF8000089B280B2814280F0858001201C
:102D5C0006000020804601206A88082392FBF3FCC1
:102D6C000CFB132C10FA0CF007006888082290FB5F
:102D7C00F2F08146002292B21FFA8BFB5A4569D2BF
:102D8C00E888082390FBF3FC0CFB130CBCF1000F40
:102D9C000AD189B2E888082390FBF3F01FFA88F86F
:102DAC0000FB018082460AE089B2E888082390FB88
:102DBC00F3F0401C1FFA88F800FB018082461FFAD2
:102DCC008AFA1AF80400304219D0DFF8F00689B2FA
:102DDC002B885B1810EB03101FFA89F9DFF8DC362F
:102DEC0089B2B5F800C01CEB010C13EB0C131FFAE5
:102DFC0089F919F803303B4309F8003018E0DFF883
:102E0C00BC0689B22B885B1810EB03101FFA89F9EA
:102E1C00DFF8A83689B2B5F800C01CEB010C13EB37
:102E2C000C131FFA89F919F80330BB4309F8003069
:102E3C007600F6B2002E03D10120060018F101082D
:102E4C007F00FFB2002F03D10120070019F1010907
:102E5C00521C90E7491C73E7280000F03DFABDE8CE
:102E6C00F18F2DE9F0410400A08807002088FFB203
:102E7C003818412803DB2088D0F140000700E08897
:102E8C00804660881FFA88F818EB0000812803DB65
:102E9C006088D0F180008046208880B22188FFB203
:102EAC00791888422EDA6188082291FBF2F10E0023
:102EBC0001216288082392FBF3FC0CFB132C11FA02
:102ECC000CF10D00002189B21FFA88F8414517D288
:102EDC00DFF8E82580B212EB0012B6B2DFF8DC3571
:102EEC0080B213EB0013B6B2F35CAB43B3546D007A
:102EFC00EDB2002D02D101221500761C491CE2E72F
:102F0C00401CCAE7200000F0E7F9BDE8F08180B56D
:102F1C00002080B240280FDA002189B2102909DA8A
:102F2C00DFF8982580B212EB001289B200238B5483
:102F3C00491CF2E7401CECE7DFF8840500F0CCF903
:102F4C0001BD10B50400DFF87C050078C00722D461
:102F5C00DFF87005006850F00100DFF868150860B4
:102F6C00DFF8640504704FF40040DFF8601508606A
:102F7C00DFF854250121DFF858050068FEF74CFCFA
:102F8C00DFF8501508600020DFF84C15086000F0E1
:102F9C00E7F8012000E0002010BD3EB50C20FFF743
:102FAC008BFCDFF838050068DFF82C1508600FF291
:102FBC00C930DFF82C150860DFF82805DFF8281574
:102FCC0008600320DFF824150870DFF82405DFF80B
:102FDC001C1548604FF48050DFF810158860DFF83E
:102FEC000405DFF808158861DFF8FC04DFF8FC1431
:102FFC00C8610120DFF8F41408840020DFF8EC1419
:10300C0008730020DFF8E4144873DFF8E004FEF7DF
:10301C005FFBDFF8BC1408604FF48050DFF8AC1491
:10302C0008604FF48040DFF8CC14086000200A28B8
:10303C0001D2401CFBE74FF48040DFF8901408608D
:10304C00DFF898040068DFF8B01408600221DFF89C
:10305C00A804FDF76BFF0028F8D04FF48040DFF890
:10306C0094140860DFF874040068DFF88C140860AE
:10307C000221DFF88404FDF759FF0028F8D00B205B
:10308C0004000025EDB2E4B2A54214D2DFF86C04C2
:10309C00EDB2285CFFF755FFDFF840040068DFF85D
:1030AC00581408600521DFF85004FDF73FFF002895
:1030BC00F8D06D1CE6E7DFF80804FFF7D2FE00F04D
:1030CC004FF8DFF818040068DFF82C1408604FF490
:1030DC00FA71DFF82404FDF729FF0028F7D0A420AB
:1030EC00FFF72FFFDFF8D803FFF7BBFE0020ADF88A
:1030FC0004002820ADF806003220ADF8080032207C
:10310C00ADF80A0001A9DFF8F803FFF7F1FDDFF8CD
:10311C00F40300F00FFA062148434008D0F14000B8
:10312C00ADF802003820ADF8000000AA0021DFF84D
:10313C00D403FFF753FD00F013F8DFF8CC0300685D
:10314C0050F00800DFF8C0130860DFF8C003FDF78B
:10315C0057FF37BD80B5DFF888030068804701BD95
:10316C0080B5DFF8AC03006800281FD50020DFF81D
:10317C0068130860DFF84C03006850F08050DFF8EB
:10318C0044130860DFF83C030068C0000ED5DFF87C
:10319C00500300688047DFF8440300680090012169
:1031AC0000A8FDF7C3FE0028ECD1F8E701BD38B547
:1031BC000400DFF860034088D0F18000DFF854137E
:1031CC00C988451ABF480078C00721D454F0B00014
:1031DC00BD490870C5F3031050F01000BA4948708F
:1031EC0015F00F00B84988704FF40040B7490860DB
:1031FC00B448006850F00100B2490860B24A03219B
:10320C00B3480068FEF708FBB2490860012000E0F3
:10321C00002032BD2DE9F0470400AB480600BD4844
:10322C004088BC49C9880818401E082190FBF1F061
:10323C0007000120B7494988B64AD2885118491E5F
:10324C00082291FBF2F303FB121398408146E4B27F
:10325C00A4B2E0000500012080460021AD48C088E2
:10326C0089B2814229D2002082460022D2B2082A99
:10327C0012DA9248ADB2D2B2531910EB0310FFB26E
:10328C00385C10EA090F05D05FFA88F818FA02F0DA
:10329C0050EA0A0A521CE9E786F800A0761C5FFA8D
:1032AC0089F95FEA59095FFA89F9B9F1000F02D17E
:1032BC00802081467F1E491CD0E74FF400408D4989
:1032CC000860814A9348C18881480068FEF7A4FAD7
:1032DC0080490860BDE8F0878F4A9288002A0CD19B
:1032EC0042888D4B5A8002888B4B1A80C2888A4B3D
:1032FC00DA808288884B9A803BE04288864B5B88D8
:10330C009A4202D24288844B5A800288824B1B8894
:10331C009A4202D20288804B1A80B0F90020B0F990
:10332C0004309A187C4BB3F90030D21A7A4BB3F9AB
:10333C000430D21A110009B2012904DB764A9288B2
:10334C008A18754B9A80B0F90220B0F906309A1899
:10335C00714BB3F90230D21A6F4BB3F90630D21A53
:10336C00110009B2012904DB6B4AD2888A186A4B16
:10337C00DA8070470000000080B552480078C00722
:10338C000BD5564800685C4908606448644908607D
:10339C000FF2AD005249086051E019214E48FDF77B
:1033AC00C5FD002845D04D4800684B4908605A4877
:1033BC008088002843D058488088564988805648D1
:1033CC00C0885449C88054480088524908805248E3
:1033DC0040885049488000204F49888000204E4941
:1033EC00C88000204C49088000204B49488049483F
:1033FC000088484989880818401E082190FBF1F084
:10340C0044490988082291FBF2F1401A401C4549B5
:10341C00087040480088082190FBF1F04249087080
:10342C0041480078FFF7C3FE0FF215002C490860E5
:10343C0005E02448006830F080502249086001BD46
:10344C0080B524480068FEF72DFE042831D135489C
:10345C000078002820D01B480078C00714D51948E4
:10346C00006840084000174908602F480078FFF7B3
:10347C00D1FE2D480078401C2B4908702948007853
:10348C00401E2849087003E027480078FFF78FFE9C
:10349C0026482349086008E00A4800682449084087
:1034AC00084908601D481E4908601D4800680C4901
:1034BC00086001BDC05C0800C0650800800D0020DC
:1034CC0044040020901C002090180020340E0E4064
:1034DC00A41C0020A01C0020981C0020C41C002050
:1034EC008C1C0020681D0020A81C0020B81A00208D
:1034FC00000E0E40300E0E40941C002020040020C4
:10350C001863080014040020B01C002008040020DC
:10351C00AC1C0020041C0020FC1B00208533080080
:10352C009C1C0020661D0020671D00204D340800E7
:10353C00FEFFFFEF00F10103810704D010F8011B1F
:10354C0089B18107FAD10268B2F10131914311F0CE
:10355C00803F04BF50F8042FF6E710F8011B11B19F
:10356C0010F8011BFBE7C01A7047000000B587B0CC
:10357C000FF29130DFF840180860FFF7C8FC01A883
:10358C00DFF838181522FDF7EFFCDFF83408006877
:10359C00009000AA002101A8FFF720FB0020FFF7F4
:1035AC00B7F90120FFF7B4F90220FFF7B1F90320B6
:1035BC00FFF7AEF90820FFF7ABF90920FFF7A8F9E0
:1035CC000A20FFF7A5F90B20FFF7A2F90420FFF75B
:1035DC009FF90520FFF79CF90620FFF799F90720C2
:1035EC00FFF796F907B000BD80B5DFF8CC0700688F
:1035FC00804701BD10B5040000F014FC3F2190FB86
:10360C00F1F201FB1200401C20802000FFF72EFB82
:10361C002088401C20802000FFF728FB2088801E7B
:10362C0020802000FFF722FB2088401C208010BD4A
:10363C0010B504002000FFF719FB2088401C2080E7
:10364C002000FFF713FB2088801E20802000FFF74E
:10365C000DFB2088401C208010BD2DE9F04182B06C
:10366C0004000D0016001F00DDF82080DFF8540761
:10367C0000680090ADF80050BDF80200D4F59661DA
:10368C000A22B1FBF2F10818ADF8020000A8FFF70E
:10369C0010FBBDF80200401CADF80200BDF80200A2
:1036AC007188491E88422ADB7088401CBDF80210C4
:1036BC00884224DBBDF800003188491E88421EDB9D
:1036CC003088401CBDF80010884218DB3000FFF732
:1036DC00F0FA3088401C30803000FFF7EAFA30886E
:1036EC00801E30803000FFF7E4FA3088401C3080B8
:1036FC007F2070803000FFF77DFF012076E0BDF861
:10370C0002007988491E88422ADB7888401CBDF863
:10371C000210884224DBBDF800003988491E88421B
:10372C001EDB3888401CBDF80010884218DB3800BE
:10373C00FFF7BFFA3888401C38803800FFF7B9FA19
:10374C003888801E38803800FFF7B3FA3888401C60
:10375C0038807D2078803800FFF74CFF012045E051
:10376C00BDF80200B8F80210491E884234DBB8F8E4
:10377C000200401CBDF8021088422DDBBDF8000091
:10378C00B8F80010491E884226DBB8F80000401C2F
:10379C00BDF8001088421FDB4046FFF78AFAB8F8E4
:1037AC000000401CA8F800004046FFF782FAB8F869
:1037BC000000801EA8F800004046FFF77AFAB8F81F
:1037CC000000401CA8F800007B20A8F8020040462E
:1037DC00FFF710FF012009E0BDF80200802801D19D
:1037EC00022003E000A8FFF741FA0020BDE8F681B3
:1037FC001CB50400DFF8D00500680190E4B2601C31
:10380C00ADF8040001980090BDF80000401CADF824
:10381C00000000A8FFF74DFABDF80000001FADF83E
:10382C00000000A8FFF745FABDF80000401CADF8F9
:10383C000000BDF80200401CADF8020000A8FFF724
:10384C0038FABDF80200401CADF8020000A8FFF7E2
:10385C0030FABDF80200401CADF8020000A8FFF7DA
:10386C0028FABDF80200401CADF8020000A8FFF7D2
:10387C0020FABDF80000801CADF8000000A8FFF78E
:10388C0018FABDF80200401EADF8020000A8FFF7C0
:10389C0010FABDF80200401EADF8020000A8FFF7B8
:1038AC0008FABDF80200401EADF8020000A8FFF7B0
:1038BC0000FA01A8FFF7DAF9E4B2601EADF80400D3
:1038CC0001A8FFF7D3F9E4B2ADF8044001A8FFF763
:1038DC00CDF90320ADF8060001A8FFF7C7F90420C5
:1038EC00ADF8060001A8FFF7C1F90520ADF80600F8
:1038FC0001A8FFF7BBF90620ADF8060001A8FFF7F9
:10390C00B5F913BD80B5012000F019FB00280ED0CD
:10391C00012000F01DFBFFF7FAFA2020FFF768FFEB
:10392C0000F042FC0FF20900DFF88C14086001BDB6
:10393C0070B5A0B0DFF894040068002807D1DFF858
:10394C009004FFF757FEDFF88C04FFF753FE00F0EE
:10395C003BFC572818DA6420DFF870140968DFF88C
:10396C006C241268B2FBF0F200FB121000280BD191
:10397C00DFF864040088002806D0DFF85C040088B7
:10398C00401EDFF85414088000F01EFCA82818DB39
:10399C006420DFF838140968DFF830241268B2FBB1
:1039AC00F0F200FB121000280BD1DFF82C04008879
:1039BC003E2806DADFF820040088401CDFF81814D3
:1039CC0008806420DFF804140968DFF8002412680A
:1039DC00B2FBF0F200FB1210002805D1DFF8F8035F
:1039EC000088C0B2FFF704FF4FF47A70DFF8DC13E5
:1039FC000968DFF8D8231268B2FBF0F200FB121052
:103A0C0000280BD1DFF8D40300885B2806DBDFF835
:103A1C00CC0300880A38DFF8C4130880DFF8BC0335
:103A2C000088DFF8A8130968DFF8A0231268B2FB3E
:103A3C00F0F200FB1210002872D1DFF89403FFF7AC
:103A4C0038F9DFF88C030088401CDFF884130880F9
:103A5C00DFF87C03FFF72DF9DFF874030088801E74
:103A6C00DFF86C130880DFF86803FFF722F9DFF842
:103A7C0060030088401CDFF858130880DFF85003FF
:103A8C004088401EDFF848134880DFF84403FFF7F6
:103A9C00CFFDDFF84003FFF70CF9DFF8380300889F
:103AAC00401CDFF830130880DFF82803FFF701F91A
:103ABC00DFF820030088801EDFF818130880DFF879
:103ACC001403FFF7F6F8C3480088401CC14908806E
:103ADC00C0484088401EBF494880BE48FFF7A8FD3B
:103AEC00BF48FFF7E6F8BE480088401CBC49088078
:103AFC00BB48FFF7DEF8BA480088801EB84908803A
:103B0C00B748FFF7D6F8B6480088401CB44908807F
:103B1C00B3484088401EB2494880B148FFF788FD41
:103B2C00AA480068B0F5167F4BD9012000F0FEF9C9
:103B3C0000280BD0AB480068002807D14FF49660E2
:103B4C00A8490860A4480088A7490880A5480068CF
:103B5C00002836D000240A20A2490968A14A12681C
:103B6C00B2FBF0F200FB121000280AD19C48009026
:103B7C00984B974A9C4801889A480068FFF76DFD5E
:103B8C000400A4B2012C08D198480068C01C9749C5
:103B9C0008600020934908600AE0A4B2022C07D107
:103BAC0092480068401E9149086000208D490860C9
:103BBC008C480068002804D08A480068401E894957
:103BCC00086082480068401C804908607F48006893
:103BDC004EF6612188420CD27D484088002808D0DE
:103BEC007C484088002804D07D484088002840F05C
:103BFC009F80FFF78CF976484088002807D07548DD
:103C0C004088002803D07648408800281AD11CA888
:103C1C0077491022FDF7B8F90DA876490922FDF76E
:103C2C00A3F975480068059005AA00211CA8FEF7A9
:103C3C00D5FF72480068049004AA00210DA8FEF775
:103C4C00CDFF43E069480068002802D50020674991
:103C5C00086066480068642190FBF1F463480068D2
:103C6C000A2190FBF1F0E4B20A2101FB14050A20B1
:103C7C005E4909685D4A126892FBF0F200FB12166D
:103C8C0006A85F491022FDF77FF914F130008DF87A
:103C9C00240015F130008DF8250016F130008DF858
:103CAC00260058480068039003AA002106A8FEF7D6
:103CBC0095FF0AA854490922FDF756F953480068A4
:103CCC00029002AA00210AA8FEF788FF16A8504904
:103CDC001522FDF749F94F480068019001AA00210F
:103CEC0016A8FEF77BFF00F064FA012000F0BAFC86
:103CFC0000203649086000203C4908600020394902
:103D0C0008602020384908802020334908807F2013
:103D1C002F4948807D202F4948807B20304948809E
:103D2C004FF4FA702D4908800FF27900224908608F
:103D3C00002000F0FBF8002832D0FFF7E8F810A8BC
:103D4C0035491522FDF710F934480068009000AA97
:103D5C00002110A8FEF742FF00F02BFA012000F022
:103D6C0081FC0020194908600020204908600020CF
:103D7C001C49086020201C49088020201649088016
:103D8C007F20134948807D20124948807B201449AC
:103D9C0048804FF4FA7011490880214806490860A0
:103DAC0020B070BD80B5002000F0C0F8002802D013
:103DBC001B480149086001BD401D0020406B0800F4
:103DCC00686C08006C6C0800706C0800441D0020C6
:103DDC00680400206C040020780400207A04002081
:103DEC00700400204C1D002076040020481D00208B
:103DFC00E86B08002C6C0800746C0800786C0800E8
:103E0C00F86B08007C6C0800386C0800806C0800AB
:103E1C00586B0800846C0800706B0800886C0800F4
:103E2C0011390800F8B5344F384600F0D1FC04467F
:103E3C00381D00F0CDFC054607F1080000F0C8FC69
:103E4C00064607F10C0000F0C3FC23782B492C4AE2
:103E5C00002B40D12B6802FB03132B60082702FBBD
:103E6C0003132B6002FB03132B6002FB03132B6069
:103E7C0002FB03132B6002FB03132B6002FB0313E7
:103E8C002B6002FB03132B600346D5F800C002FB2A
:103E9C000C1CC5F800C043F804CB7F1ED5F800C03D
:103EAC0002FB0C1CC5F800C043F804CBD5F800C0CD
:103EBC0002FB0C1CC5F800C043F804CBD5F800C0BD
:103ECC0002FB0C1CC5F800C043F804CBDDD1C36F5A
:103EDC003360012323702B6802FB031129603178B6
:103EEC0001F01F0150F8212032602A6840F821208F
:103EFC00306880008008F2BD000000205FF36E3C4B
:103F0C000D661900012110F01F029140914A40B238
:103F1C00430942F823107047012110F01F02914011
:103F2C008D4A40B2430942F82310704701008B4878
:103F3C00085C012801D1012000E00020704701003D
:103F4C008748085C012801D1012000E0002070475F
:103F5C000021834A8154704738B500240025002085
:103F6C00C0B202280DDA00217F4AC0B28154002170
:103F7C007A4AC0B2815400217C4AC0B28154401CA0
:103F8C00EEE70020C0B202281ADA7949C0B211EB70
:103F9C0040014978002905D17649C0B251F820106A
:103FAC000C430BE07249C0B211EB400149788029F7
:103FBC0004D17049C0B251F820100D43401CE1E708
:103FCC006D4804606D4805606D48006804006D48DC
:103FDC00006805000A20FFF79FFF0B20FFF79CFFEE
:103FEC000A20FFF78FFF0B20FFF78CFF0FF2490021
:103FFC00654908606548006850F002006349086034
:10400C006348FCF7FDFF31BD80B55F480068804711
:10401C0001BD0200D2B2022A0CDA5548D2B210EB22
:10402C0042004078C9B2884204D15248D2B250F80A
:10403C00220000E0002070470020C0B202280ADAFB
:10404C004949C0B2415C002903D00FF20D014E4A20
:10405C001160401CF1E7704770B54E484A49086042
:10406C000026F6B2022E74DA4B484149F6B211EB37
:10407C004601497810EB810004003F483C49F6B2F8
:10408C0011EB4601497810EB810005003648F6B279
:10409C00305C00285BD041483B49086019214048FE
:1040AC00F6B210EB8600FCF741FF00284FD03048E9
:1040BC00F6B210F81600002811D12068C0432D4923
:1040CC00F6B251F82610084204D001202749F6B266
:1040DC00705414E000202549F6B270540FE02068AB
:1040EC002449F6B251F82610084204D001201F4989
:1040FC00F6B2705403E000201C49F6B270541B4811
:10410C00F6B2305C1549F6B2715C884214D017488F
:10411C00F6B2305C1149F6B270541048F6B2305C0D
:10412C00012809D101200E49F6B270541D480068CF
:10413C000C49F6B241F8260000200B49F6B2705437
:10414C0028680C49F6B251F8261008432860761CF2
:10415C0087E770BD00E100E080E200E0561D002022
:10416C005A1D0020F41B0020541D0020581D002057
:10417C005C040020586C0800400C0E40400E0E40B1
:10418C004C0C0E404C0E0E40601C0020B01C00204D
:10419C00C0030020454008003C0C0E406540080060
:1041AC00EC1B0020C41C00200FF29D1084490860F9
:1041BC0070470FF291108249086000208149087005
:1041CC0000208149087070477F4800787047E0B53F
:1041DC0000F043F8012801D0002038E000F029FB62
:1041EC000020029007200190002000903223002232
:1041FC000221002000F0F4FB002002900720019027
:10420C0000200090322300221521132000F0E8FB3F
:10421C006E496F4800F0DEFA00F0FDFA00F065F828
:10422C0000206C49086000206B490860002065493B
:10423C0008700020644908700FF20910604908608A
:10424C006648006850F020006449086001200EBDEB
:10425C0080B55B480068804701BD1CB50024002078
:10426C0000F000FB00A800F0CDFABDF80000C0077C
:10427C0003D45B48FCF7C4FE03E05A48FCF7C0FECD
:10428C00641CBDF80000C0F3C60080B2202800D02A
:10429C00641CBDF80000C0F3802080B2002804D15B
:1042AC005148FCF7ADFE641C02E05048FCF7A8FE38
:1042BC00BDF8000080B2C00A80B2082800D0641C8F
:1042CC004B48FCF79DFEBDF80400FCF7B9FEFCF76B
:1042DC00A9FEBDF80400B0F5886F00D0641C002C5A
:1042EC0001D1012000E0002016BD04204149487096
:1042FC0014204049087105203E49487100203D4971
:10430C00C87014203B49887001203A49087003207A
:10431C0038498871704770B50400002500262000CC
:10432C0080B200F09FFA050015F480700600B6B25A
:10433C00002EF4D1012070BD2F49C0B2401890F866
:10434C00840070477047000080B519212248FCF7A3
:10435C00EDFD002812D0294800681F490860274845
:10436C00006880B2FFF7D7FF0020FFF7E5FF154983
:10437C0008700120FFF7E0FF13490870204800681F
:10438C00C00319D5FA211F48FCF7D0FD002813D023
:10439C001A4800681B4908601B48FCF731FE0948A5
:1043AC000078FCF74DFE05A0FCF72AFE06480078C5
:1043BC00FCF746FEFCF736FE01BD00003A0000009B
:1043CC00641C0020621D0020631D0020796408001D
:1043DC00F1570800BC1B0020681C0020B01C0020FA
:1043EC00D86B0800C46B0800286B080090680800A4
:1043FC00086C0800B01B002080170020C41C002093
:10440C00701C00206C1C0020F80300209748984971
:10441C0008600420974908604FF480709649086042
:10442C0096489749086097480068C007FBD59448A0
:10443C00006895490843924908609448944908607B
:10444C00904800688007FBD54FF4007091490860D4
:10445C0042F21100904908608A4800680007FBD5B9
:10446C0042F212008C490860864800680007FBD5B0
:10447C008A48006850F444108849086081480068F4
:10448C004006FBD57047002085490860002085490F
:10449C00086041F26F70844908600020834908600D
:1044AC00032083490860704780B57D4800688149C6
:1044BC000968401A012817D07F480068401C7E49C3
:1044CC0008607E48006850F020007C4908607C48F9
:1044DC000078C00708D57B48FCF792FD7648006849
:1044EC00FCF7AEFDFCF79EFD6D4800687149086055
:1044FC007548006830F48010734908607348006890
:10450C0030F00400714908606C48006850F080403D
:10451C006A49086069480068400001D530BFF9E776
:10452C0001BD6B486B4908606B486C49086070476B
:10453C0080B56B486B4908606B486C4908606C48E7
:10454C006C4908606C486D49086000206C49086033
:10455C0000206C4908606C486C4908606C486D49D7
:10456C0008604FF4C0606C4908607FF4C0606B4910
:10457C0008605FF0FF306A490860002069490860F4
:10458C005FF0D85068490860002068490860002036
:10459C0067490860002067490860674867490860F8
:1045AC0000206749086067486749086067486849A0
:1045BC0008606848684908606848694908600020D4
:1045CC0068490860002068490860684868490860C4
:1045DC00684869490860002068490860684869496A
:1045EC0008606748684908605FF400106749086014
:1045FC0056486749086000206649086000206649F3
:10460C00086000206549086065486649086000201C
:10461C006549086000F00BF864480068C00705D4D1
:10462C002648006850F080702449086001BD5FF096
:10463C0001105F49086000205E49086003205E4954
:10464C00086041F270705D49086041F270705C491D
:10465C00086042F6E0605B49086042F6E0605A4947
:10466C0008607047594908607047000073EDFC27DB
:10467C0010040E4040040E4000040E4009F03700B8
:10468C0020040E4068040E4000003701013F072053
:10469C0028040E4000080E4030040E401C040E404E
:1046AC00C41C0020C81C002014E000E018E000E04E
:1046BC0010E000E0D01C0020CC1C0020AC1C002022
:1046CC00701C0020B802002070040E4010ED00E0B9
:1046DC000085011054120E40010000A550120E402E
:1046EC00FF0123E4000C0E4000FEDC1B040C0E400A
:1046FC00D5D755BF100C0E402A28AA40140C0E40DA
:10470C00200C0E40240C0E4000000188300C0E4092
:10471C00D5010034340C0E40500C0E40540C0E409D
:10472C00600C0E40640C0E40700C0E40800C0E4061
:10473C00840C0E408C0C0E40FF0101B4A00C0E40FA
:10474C00A40C0E40E7FFBF01000E0E401800400005
:10475C00040E0E4066F59F01100E0E40990A4000A3
:10476C00140E0E40200E0E40240E0E4000D0A1015F
:10477C00300E0E4066251E00340E0E40500E0E40BC
:10478C00FFFFDF01540E0E40600E0E40640E0E4013
:10479C00700E0E40800E0E40840E0E408C0E0E409D
:1047AC00E6FF1F00A00E0E40A40E0E403C0E0E4065
:1047BC0000C0084020C0084000C208400CC208409D
:1047CC0010C2084004C2084008C2084008C0084093
:1047DC0070470000F8B504460D460026754F387832
:1047EC0038B1304600F0ACFA761C3878F6B2864216
:1047FC00F7D371480021018104612846BDE8F240DD
:10480C0000F0C0BC44F204510180002141804FF4FF
:10481C0088618180704738B50024664D287838B19E
:10482C00204600F08DFA641C2878E4B28442F7D359
:10483C0031BD10B55F4800210170604801705E4CBD
:10484C00042060701420207105206071E170142028
:10485C00A070012020700320A07100F098FC0020B3
:10486C00E06010BD2DE9F04100250027DFF85081F4
:10487C00A8F88C50504E3189411A89B2308108F217
:10488C008C025088091889B2C82908D3C823084655
:10489C00B0FBF3F007464FF6387303FB0011518061
:1048AC004848027822B1FFB2BA4234BF0022D21B70
:1048BC00027045480068800800F07F70B0F1007FFE
:1048CC0002D0B0F1017F01D100F071FCF068010061
:1048DC0018BF80470024374E307890B1F9B220468B
:1048EC0000F0CDFA0543611C3078CCB28442F5D38C
:1048FC00EDB235B1B8F88C004FF480710843A8F8CC
:10490C008C0040460421002280F88020401C491E67
:10491C00FAD100203178A1B12C4A137818252B42FA
:10492C000AD008EBD00393F88050012600F007075B
:10493C00BE40354383F88050401C0832C0B28842D8
:10494C00EBD3B8F88C00BDE8F08138B503460020F5
:10495C001E4901EBC3046179E278174D2D5642FADA
:10496C0005F5EDB2042D38BF0425124A1278934296
:10497C001ED22079C022104213D1084600F0EEFB63
:10498C00C5EBA501814203DA217901F0FB0121710C
:10499C00694209B281420BDB217941F0040121719A
:1049AC0032BD00F0FB0020712A46184600F04CF88E
:1049BC0032BD00006C1B0020B01B00206F1D0020BE
:1049CC00801700206D1B002040070E408016002031
:1049DC00EFF310807047704780F310887047704772
:1049EC002DE9F041069C079DCF4E3778DFF83CC38C
:1049FC000CEBC70C8CF8033000238CF80430CC4B38
:104A0C0093F800E08CF807E09CF8048062F3C5088A
:104A1C008CF804808CF805008CF80610C54800EB67
:104A2C008E00690181700EF1010018709CF8040071
:104A3C0064F301008CF8040040F080008CF8040052
:104A4C00781C3070BDE8F08138B504460846154630
:104A5C0000F036F9B748B0F920100A46B0F9223008
:104A6C009342B8BF1A46B0F924009042B8BF024630
:104A7C0059184018694209B200B2814206DBAB49B1
:104A8C0001EBC4010B7943F004030B71A2EB82011F
:104A9C00081800B232BD0023521C49B94FF6FF73FF
:104AAC00D2B20AB14FF6FF7398B27047521E400053
:104ABC005FEA004C02D4D2B2002AF7D15FEA014C73
:104ACC0012D5D2B2002AEFD05FEA034CEAD45B00D5
:104ADC00521E80B289B2884224BF401A5B1C49081E
:104AEC00D2B2002AF0D1DFE7521C49005FEA014C38
:104AFC00FAD5E6E72DE9F84F00268C4901EBC00901
:104B0C0099F807A0DFF82CB20BEB8A07B8784009AC
:104B1C0000F1010899F8050000F0D2F8BBF9242047
:104B2C00BBF92210BBF920408C420BDB914204DB19
:104B3C004FF48055084613460BE0002520460B46E3
:104B4C00144606E0A242F3DB4FF400551046234610
:104B5C000C460C222118A1EB430189B2C01A80B279
:104B6C00FFF799FF401985B242F6FF70ADF80000CF
:104B7C004FF4405099F8049009F0C001802916D1E7
:104B8C00A5F2672042F63231884228BF012608D2AE
:104B9C0040F23370854223BF40F23270281A85B23E
:104BAC00002542F29B10ADF80000002E7AD14FF494
:104BBC0080745FFA88F2082A05D2C2F10801C9B2E2
:104BCC006408491EFCD121464E1E052A38BF4900F7
:104BDC0002D3072A28BF49080022FFF75CFF09F01F
:104BEC00C001402916D13BF82A10B1F5C05F08D39B
:104BFC00A1F5C05189B28D420CDA05F540518DB248
:104C0C0008E001F5C05292B2AA42BCBF01F5405176
:104C1C002BF82A10B978CA0705D501F0FE00B87038
:104C2C000021002004E0890746BF01460020002136
:104C3C003BF82A2051188D42A4BFB87800F0FD0033
:104C4C0005DA4019824205DBB87840F00200B870F2
:104C5C002BF82A503BF82A00B0F5405F24BFA0F592
:104C6C0040502BF82A0000222146BDF80000FFF727
:104C7C0012FF002201463BF82A00FFF70CFF014609
:104C8C00F0B2884238BF01462B48504490F884203B
:104C9C00CBB29A4206D080F884102848018841F0A3
:104CAC0004010180BDE8F18F204901EBC000C079FF
:104CBC00204901EB8000817841F00101817070473F
:104CCC00F8B504461C4E06EB440505F240070C22D1
:104CDC00B5F840107888FFF7DEFE06EB44060C2290
:104CEC0001467088FFF7D7FEADF800000C22B5F82E
:104CFC004010B888FFF7CFFE01460C22B088FFF7B2
:104D0C00CAFE0646ADF802600A4F204600F026FAAD
:104D1C003884B5F84000BDF90010411A7984801B25
:104D2C00B884F1BD000000006C1B00208016002030
:104D3C006F1D00206C1A0020801700200C1800201A
:104D4C0010B5044600F00AF8DFF82404012100F83D
:104D5C00341000EBC4000F21417010BD30B4DFF8EB
:104D6C00103403EBC0046279A179022503F83050AA
:104D7C00DFF80004038843F0020303800020A070D6
:104D8C0091420ADBDFF8F033D018001D802300F8C5
:104D9C00013B521CD2B29142F9DA30BC7047F0B4EC
:104DAC00DFF8CC1301EBC00081794279DFF8C43312
:104DBC001D88914220DBDFF8C47307EB420407EB3C
:104DCC004206378890F801C0BCF10A0F0AD2B4F839
:104DDC0040C0674538BFACF1010703D3BC4505D2D1
:104DEC0067467F1CA4F8407045F00805521CB61CA1
:104DFC00A41CD2B29142E4DA1D80F0BC7047F0B52D
:104E0C00DFF870231388DFF8704304192779DFF873
:104E1C006CC30CEB4005B5F840603CF810E07645EF
:104E2C0012D2C8192071D64949798039C0B2C9B299
:104E3C00884222D380202071B5F84000401CA5F890
:104E4C00400043F0080318E0B6450DD2781A2071E3
:104E5C00CB490979C1F18001C9B2C0B281420CD3EE
:104E6C0080202071701EEAE7812F24BF781E2071EC
:104E7C00207980283CBF401C20711380F0BD2DE9A7
:104E8C00F04F83B081460F4600208DF808000024B7
:104E9C004846FFF75AFD0646CB46DFF8D48208EBAE
:104EAC00CB05E878297901F00301491CC840022898
:104EBC0038BF0220E978091A89B218F83B0001289A
:104ECC000DD0022822D0042855D0082800F00681E5
:104EDC00102800F0BA80202800F01D813AE101244E
:104EEC00A44E30884FF40071084330804846FFF7D9
:104EFC0056FF6878401E6870C0B210B94846FFF77C
:104F0C002DFF9D489E498978417023E128794007FF
:104F1C000CD56879984940180471202008F83B009A
:104F2C000124944E308840F4805012E1002E48BF8A
:104F3C000026B6B2E878864206DB042008F83B006F
:104F4C00AC7001248B4E01E1002F00F003818A48E4
:104F5C004078002840F0FE8095F806906E79B145B7
:104F6C00C0F2F88039463046FFF749FF761CF6B29E
:104F7C00B145F7DAEEE0300048BF002080B2E978A6
:104F8C0088425EDBDFF8F8A17B489AF8021041708A
:104F9C00A878401CA8702879C0F3C200019070B3A7
:104FAC00002775480078012829DB5F451ED008EBE7
:104FBC00C70000900079C0F3C2000199C9B28842C1
:104FCC0014D13846FFF7C1FCE978711A009AD278EF
:104FDC00801A814204DAAC7001208DF8080005E0DB
:104FEC0018F837001028F6D00828F4D0781CC7B26F
:104FFC00614800788742D8DB9DF8080040B99AF8E0
:10500C00010028B101245B4E308840F400603080F0
:10501C00A8789AF801108842C0F09C80554E3088D0
:10502C0040F003003080102008F83B00002068702E
:10503C002879C021084200F08D804846FFF734FEE5
:10504C0088E04846FFF78AFE84E0287940070ED5B1
:10505C0068794949401880210171202008F83B00EB
:10506C000124444E308840F48050308049E73000B1
:10507C0048BF00203F4E328880B2884206DA0820B2
:10508C0008F83B00012442F48060EEE742F0010096
:10509C003080A878DFF8E8B09BF8011088423CBF5C
:1050AC00401CA8702879C02108421CBF4846FFF755
:1050BC0021FD9BF8030000283FF423AF697881425F
:1050CC003CBF78186870FFF41CAF4846FFF738FEF9
:1050DC00012430884FF400710843C6E72648284A5B
:1050EC0092784270A8780028ABD0300048BF0020DE
:1050FC00204E328880B28142BEBF102008F83B009F
:10510C0042F00100A4BF012442F480603080A878F2
:10511C00401EA8701EE06879174940180179491C97
:10512C0001712879400705D408068AD5102008F8A3
:10513C003B000FE00F4E12488079C9B2814204D374
:10514C004846FFF7FDFD0124ECE60124308840F4CD
:10515C0080603080204603B0BDE8F08F074901EB3A
:10516C004002B2F9402031F91000101A00B2704719
:10517C00801600200C1800206C1B002080170020CB
:10518C00B01B002080B5010018BF804701BD13483B
:10519C0000F110010222002340F8043B40F8043BCC
:1051AC0041F8043B41F8043B521EF5D1704710B551
:1051BC000A4C2068A168084305D00948016808001A
:1051CC001CBF002088476068E168084305D004488C
:1051DC00016808001CBF0120884710BD901B0020EF
:1051EC00C01B0020012110F01F029140DFF8A42504
:1051FC0040B2430942F823107047012110F01F02FE
:10520C009140DFF8942540B2430942F823107047CF
:10521C0010B51224DFF8940500680121A140084361
:10522C00DFF8881508600020DFF884150860DFF8C7
:10523C008405DFF86C1508600020DFF86C15087029
:10524C000020DFF8741508700020DFF85015087086
:10525C00DFF86805DFF85C1508600020DFF85415EE
:10526C0048600020DFF84C1588600020DFF84415FA
:10527C00C860DFF82C0500680068006850F08000FA
:10528C00DFF81C15096809680860DFF83405006848
:10529C00DFF8301508600521DFF82805FBF746FE1E
:1052AC000028F8D0DFF82005DFF8F4140968096845
:1052BC0008612420DFF8E8140968096808600020F8
:1052CC00DFF8DC140968096848604FF4A170DFF856
:1052DC00D0140968096848624FF63560DFF8C014CD
:1052EC00096809688862200040B2FFF786FF200039
:1052FC0040B2FFF777FF0020DFF8D01408600020E1
:10530C00DFF8CC1408600FF26910DFF8C8140860DD
:10531C0010BD80B5DFF8BC040068804701BD0120DA
:10532C00C0B200281DD0DFF8A4140968002918D0D9
:10533C00DFF89C1409680978DFF864241268126895
:10534C005163DFF88C140968491CDFF88424116060
:10535C00DFF878140968491EDFF870241160401ECC
:10536C00DEE7DFF86814096800291CD10421DFF896
:10537C003024126812689162DFF82814DFF83824A0
:10538C00127811EB0211897A002912D1DFF810146E
:10539C0009680968096851F00201DFF804241268F1
:1053AC001268116005E00421DFF8F423126812681A
:1053BC005162704710B5DFF8200400680400DFF874
:1053CC001C0400680440E00508D5DFF8E40300681D
:1053DC0050F08070DFF8D813086046E0A00731D594
:1053EC00DFF8BC030068007B00072BD5DFF8B003A7
:1053FC0000680068006BDFF8A813096889680870FA
:10540C00DFF89C0300688068401CDFF8941309687F
:10541C008860DFF8B8030068401EDFF8B01308603E
:10542C00DFF8A803006801281FD1DFF874030068B7
:10543C000068006850F00200DFF86413096809681E
:10544C00086012E0600708D5DFF854030068007BA1
:10545C00800702D5FFF763FF07E0DFF8540300680D
:10546C0050F00070DFF84813086010BD0000000019
:10547C0080B5DFF834030078DFF83C1309788842F4
:10548C0000F096800020DFF818130968096848605E
:10549C002420DFF80C13096809680860DFF804039E
:1054AC00DFF8141309780901085C002832D1BC48D4
:1054BC00006800684068BB49DFF8FC22127811EBE9
:1054CC000211097A50EA0140B54909680968486037
:1054DC00B348006840684068BC490860B048006840
:1054EC0040680830BA490860FFF719FF0221AC4840
:1054FC00006840680068FCF7D7FEA9480068C068DF
:10550C0050F00600A6490968C8600FF2A900B1491D
:10551C00086044E0A348A84909780901085C0128FF
:10552C003DD19F480068006840689D49096809683A
:10553C0048609C48A049097810EB01104068A349C9
:10554C00086098489C49097810EB0110C068944990
:10555C00096888609D48006801280AD19048006855
:10556C000068006850F003008D49096809680860FC
:10557C0009E08B4800680068006850F00100884919
:10558C0009680968086086480068C06850F008001F
:10559C0083490968C8600FF2F1008E49086084489D
:1055AC00006810F07F4F03D00FF255108949086046
:1055BC0001BD000080B57B487F49097810EB0110D4
:1055CC00807A002818D181480068002826D17448B8
:1055DC0000680068006A400720D5714800680068C0
:1055EC00006AC0071AD56E480068C06830F0060023
:1055FC006B490968C86011E07448006800280DD137
:10560C00674800680068006A400707D5644800686E
:10561C00C06830F0020062490968C86060480068E0
:10562C00007B800725D404215D4800684068006831
:10563C00FCF73AFE5A480068001DFCF7CCFD5C48AC
:10564C000068400840005A49086065486149086094
:10565C0059480078401C5849087050480078401E42
:10566C004E49087054480078102802D10020524945
:10567C0008704F48006810F07F4F03D00FF2810084
:10568C005449086001BD00005048006800282DD125
:10569C00434800680068006A800727D540480068C6
:1056AC000068006AC00721D53D480068C06830F02A
:1056BC0008003B490968C8603D4800684008400044
:1056CC003B4908604648434908603B480078401C09
:1056DC003949087031480078401E30490870364806
:1056EC000078102802D10020334908703048006837
:1056FC0010F07F4F03D00FF2090036490860704755
:10570C0080B52B480068C0013AD52648264909784F
:10571C0010EB0110407A401C2249234A127811EBFD
:10572C00021148721F482049097810EB0110407A89
:10573C00032821D120480078401C1F4908701748C5
:10574C000078401E154908701B480078102802D1BB
:10575C0000201949087012480068007B80070BD59F
:10576C0006210F48006840680068FCF79DFD0C4856
:10577C000068001DFCF72FFD002009490968C8606E
:10578C000B4800680002000A0949086014481149D6
:10579C00086001BD00E100E080E200E06C1D00202B
:1057AC00E01C0020801500206A1D002010040E4013
:1057BC00DC1C0020C41B00206B1D00200040084096
:1057CC00C41C0020D81C00201D1D0200E41C00205D
:1057DC00E81C0020D41C00202C400840204008402D
:1057EC007D5408002DE9F14F98B0FFF7F1F80B90BC
:1057FC00002000908046DFF8A044DFF8A004017878
:10580C00012946D0012101702068020CA260616858
:10581C000B0CE360DFF888542F683F0CAF606D68A9
:10582C002D0CDFF87C74FD601343A360C4F80C806E
:10583C00CDF8008000250122009F02FA05F61E40DB
:10584C00AE40374300976D1C102DF5D3009BA36021
:10585C00DFF84C34009D6D009D60C3F80C8008434C
:10586C002060C4F80480CDF800800027009902FA6B
:10587C0007F30340BB40194300917F1C102FF5D355
:10588C000098206000984000DFF814140860C1F8FC
:10589C00048004A80CA916AA13AB11AD189F04EB35
:1058AC0087070397189EDFF8F8E30EEB860CA646E5
:1058BC00022657F8089BC0F800905CF8089B41F84A
:1058CC00049B50F8049B42F8049BDEF80090DEF831
:1058DC0004A04AEA090943F8049B45F8048B0EF12D
:1058EC00080E761EE5D10120FFF776F8DFF8B453E9
:1058FC000498002800F0488102900C9801901898A8
:10590C0054F820006862189854F820002860189801
:10591C0054F820006865189854F8200068650298BF
:10592C00286501982865029868600198686002985B
:10593C00286201986862019828605FEA884033D435
:10594C000B98FFF749F800BF0120FFF745F80198C5
:10595C0068600298286000BF00BF00BF00BF00BF96
:10596C0000BF00BF00BF00BF00BF02986860019875
:10597C00286008F10108CC480178491C0170C9B2B3
:10598C00022905D3032903D3042924BF0021017064
:10599C000498E96A0840119011980028CDD020682D
:1059AC006168084313902FE0002013A916AA04ABDA
:1059BC0027464FF0020C4FF4005E3E68D7F8049077
:1059CC0059EA0606D3F8009010D05FEAC97A44BFB2
:1059DC00DFF8D8A22AF810E002D45FEAC67A01D523
:1059EC00401CC0B276084FEA5909EED142F8049B2C
:1059FC0041F8046B08371B1DBCF1010CDDD10020F4
:105A0C0004900C9005900D900B98FEF7E5FF00208C
:105A1C008DF840000021074613AA04AB0A9316AB7D
:105A2C00099311AB08930CAB9D4E07960694166820
:105A3C00002E7BD00A9E36680F96002E76D0089EDC
:105A4C00D6F800E0CDF838E0079ED6F800C0079EE7
:105A5C00766846EA0C064FF000094FEA471C4FEAFD
:105A6C005C0ACDF854A00AE05FEACA7C01D5401C60
:105A7C00C0B24FEA5E0E4FEA5A0CC2F800C0DDF815
:105A8C0024C0CCF800E0D2F800A0BAF1000F32D05C
:105A9C00DDF824C0DCF800C0BCF1000F2BD05FEAAD
:105AAC00CE7C04D4E0E7491C760809F10109002EEC
:105ABC00DDD05FEAC67CF7D5C9B28842F3D1D3F802
:105ACC0000C04FF0010B0BFA09FB2CEA0B0CC3F8CE
